{
  "contractName": "FancyNames",
  "abi": [
    {
      "inputs": [
        {
          "internalType": "address",
          "name": "",
          "type": "address"
        }
      ],
      "name": "claimers",
      "outputs": [
        {
          "internalType": "bool",
          "name": "claimed",
          "type": "bool"
        },
        {
          "internalType": "string",
          "name": "name",
          "type": "string"
        }
      ],
      "stateMutability": "view",
      "type": "function"
    },
    {
      "inputs": [
        {
          "internalType": "string",
          "name": "name",
          "type": "string"
        }
      ],
      "name": "claim",
      "outputs": [],
      "stateMutability": "nonpayable",
      "type": "function"
    },
    {
      "inputs": [],
      "name": "read",
      "outputs": [
        {
          "internalType": "string",
          "name": "",
          "type": "string"
        }
      ],
      "stateMutability": "view",
      "type": "function"
    }
  ],
  "bytecode": "0x608060405234801561001057600080fd5b506107b0806100206000396000f3fe608060405234801561001057600080fd5b50600436106100415760003560e01c806357de26a414610046578063da62fba914610064578063f3fe12c914610095575b600080fd5b61004e6100b1565b60405161005b9190610534565b60405180910390f35b61007e6004803603810190610079919061042f565b610188565b60405161008c929190610504565b60405180910390f35b6100af60048036038101906100aa9190610458565b610241565b005b606060008060003373ffffffffffffffffffffffffffffffffffffffff1673ffffffffffffffffffffffffffffffffffffffff168152602001908152602001600020905080600101805461010490610668565b80601f016020809104026020016040519081016040528092919081815260200182805461013090610668565b801561017d5780601f106101525761010080835404028352916020019161017d565b820191906000526020600020905b81548152906001019060200180831161016057829003601f168201915b505050505091505090565b60006020528060005260406000206000915090508060000160009054906101000a900460ff16908060010180546101be90610668565b80601f01602080910402602001604051908101604052809291908181526020018280546101ea90610668565b80156102375780601f1061020c57610100808354040283529160200191610237565b820191906000526020600020905b81548152906001019060200180831161021a57829003601f168201915b5050505050905082565b60008060003373ffffffffffffffffffffffffffffffffffffffff1673ffffffffffffffffffffffffffffffffffffffff16815260200190815260200160002090508060000160009054906101000a900460ff16156102d5576040517f08c379a00000000000000000000000000000000000000000000000000000000081526004016102cc90610556565b60405180910390fd5b818160010190805190602001906102ed92919061030f565b5060018160000160006101000a81548160ff0219169083151502179055505050565b82805461031b90610668565b90600052602060002090601f01602090048101928261033d5760008555610384565b82601f1061035657805160ff1916838001178555610384565b82800160010185558215610384579182015b82811115610383578251825591602001919060010190610368565b5b5090506103919190610395565b5090565b5b808211156103ae576000816000905550600101610396565b5090565b60006103c56103c08461059b565b610576565b9050828152602081018484840111156103dd57600080fd5b6103e8848285610626565b509392505050565b6000813590506103ff81610763565b92915050565b600082601f83011261041657600080fd5b81356104268482602086016103b2565b91505092915050565b60006020828403121561044157600080fd5b600061044f848285016103f0565b91505092915050565b60006020828403121561046a57600080fd5b600082013567ffffffffffffffff81111561048457600080fd5b61049084828501610405565b91505092915050565b6104a2816105fa565b82525050565b60006104b3826105cc565b6104bd81856105d7565b93506104cd818560208601610635565b6104d681610729565b840191505092915050565b60006104ee6010836105d7565b91506104f98261073a565b602082019050919050565b60006040820190506105196000830185610499565b818103602083015261052b81846104a8565b90509392505050565b6000602082019050818103600083015261054e81846104a8565b905092915050565b6000602082019050818103600083015261056f816104e1565b9050919050565b6000610580610591565b905061058c828261069a565b919050565b6000604051905090565b600067ffffffffffffffff8211156105b6576105b56106fa565b5b6105bf82610729565b9050602081019050919050565b600081519050919050565b600082825260208201905092915050565b60006105f382610606565b9050919050565b60008115159050919050565b600073ffffffffffffffffffffffffffffffffffffffff82169050919050565b82818337600083830152505050565b60005b83811015610653578082015181840152602081019050610638565b83811115610662576000848401525b50505050565b6000600282049050600182168061068057607f821691505b60208210811415610694576106936106cb565b5b50919050565b6106a382610729565b810181811067ffffffffffffffff821117156106c2576106c16106fa565b5b80604052505050565b7f4e487b7100000000000000000000000000000000000000000000000000000000600052602260045260246000fd5b7f4e487b7100000000000000000000000000000000000000000000000000000000600052604160045260246000fd5b6000601f19601f8301169050919050565b7f416c726561647920636c61696d65642e00000000000000000000000000000000600082015250565b61076c816105e8565b811461077757600080fd5b5056fea2646970667358221220ae4b392231f28ef265cd50984c8c3ef94dffdc016497c845943d4c93ee8fcd9264736f6c63430008030033",
  "immutableReferences": {},
  "source": "pragma solidity >=0.8.0;\n\ncontract FancyNames {\n\n    struct Claimer {\n        bool claimed;\n        string name;\n    }\n\n    mapping(address => Claimer) public claimers;\n\n    function claim(string memory name) public {\n        Claimer storage sender = claimers[msg.sender];\n\n        require(!sender.claimed, \"Already claimed.\");\n        \n        sender.name = name;\n        sender.claimed = true;\n    }\n    \n    function read() public view returns (string memory) {\n        Claimer storage sender = claimers[msg.sender];\n        \n        return sender.name;\n     }\n}",
  "sourcePath": "/home/ririen/Projekty/NervosDAPP/contracts/FancyNames.sol",
  "compiler": {
    "name": "solc",
    "version": "0.8.3+commit.8d00100c.Linux.g++"
  },
  "schemaVersion": "3.4.2",
  "updatedAt": "2021-08-11T18:32:48.848Z",
  "devdoc": {
    "kind": "dev",
    "methods": {},
    "version": 1
  },
  "userdoc": {
    "kind": "user",
    "methods": {},
    "version": 1
  }
}